:020000040800F2
:10000000280C0020B5010008B11C0008CB1B00081B
:1000100000000000000000000000000000000000E0
:10002000000000000000000000000000B51C0008F7
:100030000000000000000000B31C0008B71C00080E
:10004000C7010008C7010008C7010008C701000870
:10005000C7010008C7010008C7010008C701000860
:10006000C7010008C7010008C7010008C701000850
:10007000C7010008C7010008C7010008C701000840
:10008000C7010008C7010008C7010008C701000830
:10009000C7010008C7010008C7010008C701000820
:1000A000C7010008C7010008C7010008C701000810
:1000B00065290008C7010008C701000800F002F820
:1000C00000F04CF812A030C8083824182D18AC42A3
:1000D00001D100F043F80FCCA246AB460CA730CFBD
:1000E0002D1B083F3F197C427F1E54442D090426D6
:1000F000F441641EAC4201D300F030F801263342D3
:1001000000D0FB1A3343984754465D46DFE70000B2
:100110005035000070350000103A02D378C878C11D
:10012000FAD8520701D330C830C101D504680C6039
:1001300070470000704700000023002400250026BF
:10014000103A01D378C1FBD8520700D330C100D593
:100150000B6070471FB51FBD10B510BD00F032F920
:100160001146FFF7F7FF02F04BFF00F04AF903B426
:10017000FFF7F2FF03BC00F051F9000070B505462F
:100180000C46164602E00FCC0FC5103E102EFAD2D8
:10019000082E02D303CC03C5083E042E07D301CC9E
:1001A00001C5361F03E021782970641C6D1C761E82
:1001B000F9D270BD0748804707480047FEE7FEE7D1
:1001C000FEE7FEE7FEE7FEE704480549054A064B61
:1001D00070470000BF1C0008BD0000082806002072
:1001E000280C00202808002028080020FEB504461E
:1001F00010460D46184373D0A6468C460020A41A1C
:1002000001469D4167D36646002701243D46B61A44
:100210009D4102D313463A462124654676462F0473
:10022000360C3E432D0CB61A9D4104D3150C1B040D
:100230002B4312041034654676462F06360A3E4399
:100240002D0AB61A9D4104D3150E1B022B43120230
:100250000834654676462F0736093E432D09B61AFF
:100260009D4104D3150F1B012B431201241D65462C
:100270007646AF07B6083E43AD08B61A9D4104D393
:10028000950F9B002B439200A41C65467646EF0712
:1002900076083E436D08B61A9D411AD392185B4109
:1002A000641C16E00018764665464941B71A9D4120
:1002B0000191009009D36046B11A98418E46844658
:1002C000009801990025401C6941DD0752082A4326
:1002D0005B08641EE6D57246634603B0F0BDFFE7D7
:1002E0002046284307D00020C0430146C046C046F0
:1002F00022462B46F1E700200146F7E7F8B5042A2D
:100300002CD3830712D00B78491C0370401C521E5B
:1003100083070BD00B78491C0370401C521E8307C7
:1003200004D00B78491C0370401C521E8B079B0F96
:1003300005D0C91ADF002023DE1B08C90AE0FFF739
:100340001DFFF8BD1D4608C9FD401C46B4402C43A6
:1003500010C0121F042AF5D2F308C91A521EF0D495
:100360000B78491C0370401C521EEAD40B78491CC0
:100370000370401C012AE4D409780170F8BD01E043
:1003800004C0091F0429FBD28B0701D50280801C01
:10039000C90700D00270704700290BD0C30702D0F4
:1003A0000270401C491E022904D3830702D5028033
:1003B000801C891EE3E70022EEE70022DFE770479A
:1003C00070477047754600F025F8AE46050069464F
:1003D0005346C008C000854618B020B5FFF7F4FEAC
:1003E00060BCB64600260027C0C5C0C5C0C5C0C594
:1003F000C0C5C0C5C0C5C0C5403D490849008D46FF
:10040000704710B50446C046C0462046FFF7AFFE11
:1004100010BD00000048704710000020014918205E
:10042000ABBEFEE7260002007047EFF3108072B605
:10043000FEE70000B0B500282AD0014624314A78F2
:10044000022A27D1046822680E239A432260826C14
:1004500015682D4B1D4015602568012295432560C8
:10046000446C1C2525401446AC40056C6C60C46C83
:10047000056D6560446D002C05D025681D40256024
:10048000836DC06D58604A70002000220A70B0BDB4
:100490000120B0BD0422C263012000220A70B0BD59
:1004A000B0B5014624314A78022A29D103681A6876
:1004B0000E24A2431A601C68012294431C60846CC1
:1004C0002568114B1D402560446C1C2525401446B1
:1004D000AC40056C6C60C46C056D6560446D002CAF
:1004E00005D025681D402560836DC46D5C600024C7
:1004F0000C704A70816B002900D088472046B0BD3F
:100500000421C1630120B0BDFFFEFFFFB0B504466A
:1005100000F0E4F80546601C02D092480078041907
:1005200000F0DCF8401BA042FAD3B0BDF0B589B0B2
:1005300006900D68002D00D1B7E05D48069A824212
:1005400002D00846052401E0084604240B210907CF
:10055000069A5118890A930559180091042900D365
:10056000009400231E461C461F46014607900EE0DD
:100570002943049E5048016007997F1C0D68284656
:10058000F8400833361DA41C002800D18DE001205E
:10059000B84005400295F0D0049605930B4603261B
:1005A0003146A140C94322465C68254635406B1E52
:1005B000012B08910394019211D806998B68089E2B
:1005C0003340079EF66896401E438E60E306DB0FBD
:1005D000BB404E6886431E434E60089906E0032DDB
:1005E00004D135460799049E019C1FE0069AD06805
:1005F000084007998B68019CA3400343D360022DF8
:10060000049E13D11C2030400F218140FB089B0029
:10061000069AD3181D6A8D430799096981402943B9
:10062000196207994868032503900540A540069A7A
:100630001068089B18402843106003988003800FBF
:10064000059B9AD0182018400A460F2181400323A9
:100650003D469D43174E73191D6E8D430099814091
:100660002943196631685068C30202D5029D2943A7
:1006700001E0029DA9430F4B19605968830201D51F
:10068000294300E0A9430B4B59600B494968830398
:1006900001D5294300E0A943059B074E71603168ED
:1006A000C00300D564E7A94363E709B0F0BDC046C5
:1006B00000100050001802408018024042690B46AA
:1006C00093430A401104C91881617047002A02D07F
:1006D00018228150704728228150704705480068D1
:1006E0007047C0461F48007802490A681018086021
:1006F0007047C0462406002010B501242002084996
:100700000A6802430A60032000F00CF8002801D0B8
:10071000204610BD00F028F80024204610BDC04639
:100720000020024070B50F4E31780124002916D008
:1007300005467D20C00002F051FD01464E4800688C
:1007400002F04CFD00F0F2FD032D08D8002806D180
:100750000024E0432946224600F02EF8756020462A
:1007600070BDC0460000002080B582B00B484168D3
:100770000122114341604168114001910199110723
:1007800002680A4302600068084000900098032055
:10079000400200F0C1FD02B080BDC0463C100240E6
:1007A000002805D41F210840012181400148016033
:1007B0007047C04600E100E0002805D4032203464C
:1007C00093430A4A9A1803E00C220240064BD218BF
:1007D0008007C00E8901C9B28140FF2383401068A1
:1007E000984308431060704714ED00E000E400E017
:1007F000F0B581B0032569021E4E3246143A1368E3
:100800008B4303431360012461020022884204D118
:10081000194801683068400502D4104601B0F0BDA7
:100820000092A70206204843144902F0D7FC201A80
:10083000022816D03168394217D0012811D031680A
:10084000394212D000280CD0316839420DD0001D39
:10085000032806D031683942EAD1009A104601B027
:10086000F0BD2A46104601B0F0BD009A104601B016
:10087000F0BDC046147000400800002040420F0048
:10088000F0B587B00446012630020590A0788007B5
:100890009F4F049605D4002003902068C10751D1D2
:1008A00056E0300739461839019109680290014035
:1008B000009108D1019A10680299084310601068ED
:1008C000084006900698944E3068059908433060B9
:1008D000FFF704FF054630680599084206D1FFF787
:1008E000FDFE401B0228F6D903201EE003200390E2
:1008F0000102B868084011D0216C88420BD0B8685A
:1009000004990904BA680A43BA60BA688A43BA60AB
:1009100080490840B860C00700D0EBE0B8687D4966
:100920000840216C0143B960002003900098002822
:1009300004D1019A1068029988431060049E2068CF
:10094000C10705D039680322914362680A433A60BF
:10095000810711D4410717D4C1061DD4C10424D482
:1009600081052AD4410531D481066C4938D4420628
:100970003DD4420444D452E039680C229143A26829
:100980000A433A604107E7D5396830229143E2686B
:100990000A433A60C106E1D5032189023A688A43D5
:1009A000216911433960C104DAD53968594A1140C7
:1009B00062690A433A608105D4D5032189043A6803
:1009C0008A43A16A114339604105CDD50321090548
:1009D0003A688A43E16A1143396081064F49C6D5B6
:1009E0003A680A40A36913433B604206C1D503221B
:1009F00092033B689343E2691A433A6042040ED57E
:100A00003A68474B1A40256B2A433A605A1C954274
:100A100005D132043B46483B1D6815431D60020367
:100A200005D53A6840239A43636B13433B60B30593
:100A3000320685020DD53D689D43A66B35433D606A
:100A40009E42049E05D13D46483D2E6816432E60C9
:100A5000049E18420BD03B689343E56B2B433B60ED
:100A6000954204D13B46483B1D6815431D60030574
:100A70000ED57B680325AB43256A2B437B60012D94
:100A800006D133043D46483D2E681E432E60049E29
:100A900083040ED57B680C25AB43656A2B437B60D2
:100AA000042D06D133043D46483D2E681E432E607A
:100AB000049E10420CD073037D680D40616C0D43A1
:100AC0007D60994204D1394648390B6813430B6065
:100AD00080010CD578680F490840A16C0843786004
:100AE0000598814203D1483F386810433860039825
:100AF00007B0F0BDFFF7F2FD0646854DB8688007E8
:100B000000D50BE7FFF7EAFD801BA842F6D90DE7F9
:100B100054100240FFFCFFFF00700040FFCFFFFFBA
:100B2000FFFFFF3FF0B583B00D46012100281BD029
:100B3000019102907548006807242040A84216D20F
:100B400072490868A04328430860714EFFF7C6FD4C
:100B500007466E4800682040A84208D0FFF7BEFD57
:100B6000C01BB042F5D90321084603B0F0BD029E78
:100B700030688107914B0CD5410703D521031A68D2
:100B80000A431A600F2109021A688A43B1681143A7
:100B90001960C0071BD15D4800682040A8422CD9CD
:100BA0005A490868A04328430860594FFFF796FD4B
:100BB0000646564800682040A8421ED0FFF78EFD2A
:100BC000801BB842F5D90321084603B0F0BD029856
:100BD000406803285DD8810001A251588F46C04665
:100BE000F10B0008970C0008A10C0008AB0C0008E2
:100BF000194608390968490559E0029A10784007F2
:100C00006E4B05D5200319688143D06808431860EE
:100C100018688006400F22D01A6838210A406848B8
:100C2000082A23D01A680A40102A5ED15968032284
:100C30000A40032A00D0634859684906490F491CF5
:100C400002F0CCFA5D4949684904490E48435B49C2
:100C50004968490F491C02F0C1FA584B06E0184692
:100C6000083800688004410F5648C840196889094F
:100C70003C220A40274989581F220A40D0402E4969
:100C8000086025480068FFF74DFD0146084603B09F
:100C9000F0BD596D0AE0194608390968890306E074
:100CA000194608390968890101E0996D8907019998
:100CB00000D459E71968A14301431960144FFFF7A5
:100CC0000DFD06463D480068382101400298406805
:100CD000C000814200D15EE7FFF700FD801BB842F3
:100CE000F0D90321084603B0F0BD18680840202859
:100CF00002D10120C003B9E718680840182801D0C4
:100D00000020B3E77D200002B0E7C046002002408B
:100D100088130000D433000804000020064800684F
:100D200026490968890A1C220A40044989581F2259
:100D30000A40D0407047C046080000201434000824
:100D400010B51E4C20688006400F06D0226838215E
:100D50000A401B48082A07D110BD083C20688004BF
:100D6000410F1848C84010BD22680A40102A15D10A
:100D7000616803220A40032A00D0124861684906CC
:100D8000490F491C02F02AFA61684904490E484398
:100D90006168490F491C02F021FA10BD2068084023
:100DA000202802D10120C00310BD20680840182867
:100DB00001D0002010BD7D20000210BD08100240AF
:100DC00000127A000024F400F0B587B00125002855
:100DD00000D188E0049505900078C007F44F2FD12A
:100DE0000598007880074FD40598007800070DD546
:100DF000B86838210140182900D0D1E0386E80074A
:100E000004D505988069002800D1AAE0059A1078D9
:100E1000400774D41078800600D5A6E00598046ACF
:100E2000002C00D106E2B86838210140102900D01A
:100E300005E1012C00D074E1049D284607B0F0BD07
:100E4000B868F968032422468A43382101401020FB
:100E5000484082185042504101256E04082945D06F
:100E6000002843D1059841682804814208D0052212
:100E70001204914200D0FDE0A9043A680A433A60A6
:100E8000396801433960FFE0B96838200840102113
:100E90004140FA6803252A4002235340CA185142B0
:100EA0005141002837D0002935D13868059AD168DA
:100EB000002900D1F8E00721C902884311690143E4
:100EC0003960012001023A680A433A608402FFF760
:100ED00005FC06463868204200D007E1FFF7FEFB1C
:100EE000801B0228F6D9284607B0F0BD386830428A
:100EF00000D175E7059840680028F4D070E7B8681D
:100F000038210140202962D1F86D800782D5906890
:100F1000002826D07EE739684905059B02D5D968A7
:100F200000291ED07F2109027A688A435969090283
:100F30001143796000280DD10720C0023968814330
:100F400018690843386038688004400FC749C140B9
:100F5000C7480160C7480068FFF7E4FB002800D1DC
:100F600042E7049D284607B0F0BD38680121CC0552
:100F7000059AD2698905002A00D1A7E008433860A4
:100F8000FFF7ACFB05463868204200D046E7FFF784
:100F9000A5FB401B0228F6D90325284607B0F0BD63
:100FA000386E05998969002900D1A9E0012108431B
:100FB0003866FFF793FB0646386E800700D525E7B5
:100FC000FFF78CFB801B03250228F5D98BE7012056
:100FD00003900107F86B0840029006D1F86B0843B4
:100FE000F863F86B0840069006980191A2480068E3
:100FF000C00513D4039804029F4908682043086081
:10100000FFF76CFB06469C480068204206D1FFF7BC
:1010100065FB801B03250228F5D964E705988068E5
:10102000964C012806D0052800D0C3E0F86D0421B5
:101030000143F965F86D03990843F865C4E001259B
:1010400029063868039188433860FFF747FB064656
:10105000022C00D090E0029568060490386804994C
:10106000084200D1BDE0FFF739FB801B03250228B1
:10107000F4D938E73A6882433A60A8043A68824370
:101080003A60002900D182E0FFF728FB0546386866
:10109000304200D0A4E6FFF721FB401B6428F6D9BC
:1010A0002546284607B0F0BD01210A02904338606A
:1010B0008C02FFF713FB06463868204200D193E606
:1010C000FFF70CFB801B0228F6D90CE78843386039
:1010D000FFF704FB06463868204200D19EE6FFF782
:1010E000FDFA801B03250228F5D9FCE67F200002CB
:1010F000796881430598406900020843786073E687
:10110000012188433866FFF7E9FA0646386E800702
:1011100000D47BE6FFF7E2FA801B03250228F5D90D
:10112000E1E6F86803210140059C626A914200D023
:1011300017E770210140A26A914200D011E77F2198
:1011400009020140E26A1202914200D009E71F2120
:1011500049040140226B914200D002E707214A0670
:101160000240636B9A42049D00D0BCE649070840E8
:10117000A16B88425ED0B6E66C063868204255D036
:10118000FFF7ACFA801B03250228F6D9ABE6FFF780
:10119000A5FA05463868304200D121E6FFF79EFAED
:1011A000401B6428F6D92546284607B0F0BDC04646
:1011B00000100240F96D039A9143F965F96D04221C
:1011C0009143F965002839D0FFF788FA0646F86D93
:1011D000800740D4FFF782FA801B0325A042F6D98E
:1011E00081E6F86827490140059E24367DCE0843F4
:1011F000104319020143214329433143F960386800
:1012000003990843386002980007F9680143F960C0
:10121000FFF764FA04463868049908420AD1FFF7D8
:101220005DFA001B03250228F5D95CE6F86814492D
:101230000140F9600025284607B0F0BDFFF74EFADF
:101240000646F86D800706D5FFF748FA801B032590
:10125000A042F6D947E602980028059A00D0D9E5C1
:10126000F86B01998843F863D4E5C0460024F40084
:1012700008000020040000200070004088130000D7
:10128000FCFFFEEE8C80C111F0B581B000283DD08E
:1012900016460F46044600930546843568680028C4
:1012A00004D100202870204600F068FB24206860EC
:1012B000206801680125A9430160A06A002802D0C6
:1012C000204600F0FDFC204601F084F801281AD0E9
:1012D0000120820321688B6813438B60C2038B68F3
:1012E00093433B438B607205009B1B0413430A68C6
:1012F000084D15401D430D600A6802430A602046F0
:1013000000F048FD0546284601B0F0BD01252846FD
:1013100001B0F0BDFFFF00FC03214902024A13683F
:101320008B4303431360704700000140401E010ED1
:1013300001D0012070470749074A506007480368F9
:101340000B40032189075918016000209060072194
:1013500011607047FFFFFF0010E000E020ED00E0AB
:10136000B0B58421415C012901D10220B0BD024603
:1013700084322421516001680B680C680125AC435C
:101380000C606C07A3430B600021416611702020A4
:1013900050600846B0BD70B504468C202058202807
:1013A00010D1012500290BD0002A09D001252803DE
:1013B000A368834208D1C80706D02069002803D15A
:1013C000284670BD022070BDE566002626672046CF
:1013D00001F04CF9E06E0128F2D120681021016281
:1013E000EFF31080012282F31088226813680B4308
:1013F000136080F310883546284670BD10B50A4A40
:1014000012680068904200D010BD08480368084880
:101410001A180124147151801A5AA6330248194629
:10142000FFF7B9FF10BDC0462805002020060020A8
:10143000A602000070470000F0B581B0054668358F
:101440002A7F012A02D1022001B0F0BD24222A62A3
:101450000668376832680124A243326007225206C8
:10146000B36893430B43B360406E0028204615D009
:101470000097B768B068400F2B49095C2B4A105C95
:10148000C00001F0ABFE04463801009F400F264922
:10149000095C264A105CC00001F0A0FE28806C8028
:1014A0003760002028772021296201B0F0BDC046B6
:1014B000F0B581B0054668352A7F012A02D10220A5
:1014C00001B0F0BD24222A62066837683268012420
:1014D000A243326007225207B36893430B43B360C1
:1014E000406E0028204615D00097B768B068400FBE
:1014F0000D49095C0D4A105CC00001F06FFE044606
:101500003801009F400F0849095C084A105CC00080
:1015100001F064FE28806C8037600020287720214D
:10152000296201B0F0BDC0465834000850340008AC
:101530007047704770470000F0B589B003460068F7
:10154000C76920240126F20211462F31394005686F
:1015500008935C33079306908068202904940590D3
:1015600010D12946214001231B070340C9183846E2
:1015700018D00898416F002900D150E10898884799
:1015800009B0F0BD03920F32174238460AD0EB493A
:1015900029403207541C0346059804401846611838
:1015A00000D08DE01027294639404B424B4101467F
:1015B00039404C424C411C430899C96E491E4B1E90
:1015C0009941214338D001240126B105059F3940B6
:1015D0004B424B41C1022146069A00D519460029CB
:1015E00000D1A2E0010606D580212940F20517406E
:1015F000C91900D09CE14022294611404B424B4181
:101600004106214600D51946002900D134E1B10731
:1016100029404A424A410102214600D5114600298B
:1016200000D192E1002D00DA94E1C00100D595E1EE
:10163000002C00D0F3E095E1069807628068400630
:1016400000D579E0079E708831887288002A00D121
:10165000E5E0814200D1E2E0EFF31083012282F362
:10166000108809246401089D069028680668A6432E
:10167000066083F31088EFF3108382F310882C68E0
:10168000A068BB4E0640A66083F310880498079BB1
:10169000186300236B67EB66EFF3108382F3108807
:1016A0002A681468BC43146083F3108802222A67F6
:1016B0000698081A81B22846FFF7A0FE09B0F0BDCF
:1016C0000192014631404B424B4131020295294083
:1016D0004D424D411D43069A05D101211162079DDE
:1016E0006B6B0B436B630127059B3B405D425D4188
:1016F0008107314600D5294600290BD1022111620C
:1017000007994D6B009504253A46009F3D431746C7
:10171000069A4D635D425D414107314659D4002927
:101720005AD00107089D61D46BE03005106208981B
:10173000FFF7FFFE09B0F0BD079E706A00684168C0
:101740008AB2002A6BD033889A4268D271800068CE
:10175000800633D4EFF31081012080F31088864A8D
:101760002032089D2B681C6814401C6081F310888F
:10177000EFF3108180F310882A68936883439360A5
:1017800081F31088EFF3108180F310882A68936842
:101790004024A343936081F31088049931630021AE
:1017A000E966EFF3108180F3108828680268BA4375
:1017B000026081F31088706AFEF73CFE02210898EF
:1017C000016732887188511A89B2FFF717FE09B094
:1017D000F0BD29460029A4D104211162079D696B3F
:1017E00002230B436B630107089D0AD50299049BF2
:1017F00019400C4305D008211162079C636B0B4311
:101800006363B906029B19404B424B41039908425E
:1018100007D1002E079E08D0716B00290DD109B0A9
:10182000F0BD1E46002E079EF6D11162716B049B1F
:1018300019437163716B0029F1D0049908400CD0F1
:10184000059B0198034002980840184305D0696F32
:10185000002902D0284688472A68706B2821014059
:1018600092684020024051181BD12846FFF762FEC3
:101870000020706309B0F0BDEFF3108086F310888C
:10188000089C21680B6893430B6080F3108800204C
:10189000A06707980499C162204600F095F909B045
:1018A000F0BDEFF3108187F31088092252012B68F5
:1018B0001C6894431C6081F31088EFF3108187F358
:1018C00010882A6893682A4C1C40946081F3108821
:1018D000E96E01290AD1EFF3108187F310882A6895
:1018E00013681024A343136081F3108804993163B3
:1018F0000021E966696729688968490620D5EFF300
:10190000108187F310882A6893688343936081F37A
:101910001088706A002813D016498163FEF7C0FD55
:10192000002800D17BE7706A816B884709B0F0BD61
:101930000898816F002900D020E670E7200100049C
:101940002846FFF7F7FD09B0F0BD0898FFF7F0FD56
:1019500009B0F0BD0026C00100D469E63446002C71
:1019600000D05CE70898FFF765FD09B0F0BDC04600
:10197000FEFFFFEF591E0008DFFEFFFF70B598B0B5
:1019800004466846001D4821FEF717FD2068C74938
:10199000884201D018B070BD0120410205910003BA
:1019A00000906846FEF76CFF002801D0FEF73DFD71
:1019B000A24881688022114381608168114013919F
:1019C0001399016802263143016001683140139187
:1019D00013990168042211430160006810401390BC
:1019E00013980A20179000241694159414961396B1
:1019F0000D4813AD2946FEF799FD03201790169464
:101A000015941496C020139008482946FEF78EFDC1
:101A10001C25284621462246FEF7CEFE2846FEF724
:101A2000BFFE18B070BDC046000400500008005052
:101A300070470000F0B585B00F4605465435696B18
:101A4000202913D102930126002F0CD01446002A1E
:101A500009D001263203816891420BD1F90709D0E0
:101A60000169002906D1304605B0F0BD0226304696
:101A700005B0F0BD00210191E96321216963049063
:101A80001646FEF72BFE049903906C802C80886824
:101A9000B04202D10869002820D03E46029F019A38
:101AA0006888002820D0781C464C48D0002F65D18B
:101AB000086808E031788162761C6988491E69806F
:101AC0006988002911D0C169090630D5002EF1D1ED
:101AD000118821408162921C0026EEE700263A46DA
:101AE000029F68880028DED10868C169002649067F
:101AF00020D4002F1BD0791C12D1C169490619D4FA
:101B0000C169490616D4C169490613D4C169490699
:101B1000F3D50FE0049800680168C069400609D455
:101B2000FEF7DCFD0399401AB842F3D901E0FEF755
:101B3000D5FD032620206863304605B0F0BD086857
:101B40000AE0118821408162921C00266988491EA2
:101B5000698069880029C8D0C169090608D4C169AB
:101B6000090605D4C169090602D4C1690906F3D57D
:101B7000002EE6D031788162761CE7E70192086892
:101B8000C169090609D4FEF7A9FD0399401AB842B4
:101B9000CFD8049800680168F2E7002E03D03178AE
:101BA0008162761C06E0019A118821408162921CB4
:101BB000019200266988491E698069880029DFD161
:101BC00093E7C046FF0100007047FEE7F0B587B01D
:101BD000002406941948016820221143016001681D
:101BE00011400191019901680222114301600168CD
:101BF00011400191019901680422114301600168BB
:101C00001140019101990168012739430160006881
:101C100038400190019805200507FE03284631460B
:101C20002246FEF753FD059404940397029602A9F9
:101C30002846FEF77BFC07B0F0BDC04634100240DA
:101C400010B5194800214166022201624262816298
:101C50000C22BC4B4B24E40118C001604160816040
:101C6000C26001610A460B460838FFF70DFB0028E9
:101C700001D0FEF7DAFB0C480021FFF719FC002821
:101C800001D0FEF7D2FB08480021FFF7D5FB002862
:101C900001D0FEF7CAFB0448FFF762FB002801D021
:101CA000FEF7C3FB10BDC04628050020008400409D
:101CB000FEE77047704780B5FEF714FD80BD7047A2
:101CC000B0B5816A0A070CD4CA0714D18A071CD49C
:101CD0004A0724D4CA062CD48A0634D44A063CD4F3
:101CE0004CE00122D20303685C689443826B224378
:101CF0005A60CA07EAD00122520403685C68944320
:101D0000C26A22435A608A07E2D50122120403689C
:101D10005C689443026B22435A604A07DAD5012279
:101D2000920403685C689443426B22435A60CA067B
:101D3000D2D50122120303689C689443C26B2243EC
:101D40009A608A06CAD50122520303689C689443AC
:101D5000026C22439A604A0610D5012213050268DC
:101D600054689C43456C2C4354609D4206D1032328
:101D70005B0554689C43836C23435360090607D575
:101D80000121C904026853688B43C06C184350603A
:101D9000B0BD0000F0B583B0044606468436002787
:101DA000F760FEF79BFC03462068016809071FD512
:101DB00028480090012002904105002220461D463F
:101DC00000F0EEFC002811D0EFF31080029981F3AF
:101DD000108821680A6880239A430A6080F310887B
:101DE000202070600320377003B0F0BD20682B46C0
:101DF0000068400725D5174800900125A905002255
:101E0000204600F0CDFC00281BD0EFF3108085F3B6
:101E1000108809214901226813688B43136080F3FD
:101E20001088EFF3108085F3108821688A68AA4330
:101E30008A6080F310882020B0600320377003B0E0
:101E4000F0BD20207060B060E766276738463770C5
:101E500003B0F0BDFFFFFF0180B5806A0146563137
:101E600000220A8156214252FFF764FB80BD000028
:101E7000F0B581B0026801465C318B880C6B222C76
:101E80000DD1526A1340826D13804B885B1E4B80CC
:101E9000921C82654A88002A07D001B0F0BD906983
:101EA00008210143916101B0F0BDEFF310830122DD
:101EB00082F310880924640105682E68A6432E6009
:101EC00083F31088EFF3108382F310880468A56809
:101ED0009543A56083F3108820230B630023436799
:101EE0000367950204682543C24EB5420DD064686D
:101EF00024020AD5EFF3108482F310889506066851
:101F00003768AF43376084F31088C46E012C15D155
:101F1000C366EFF3108382F31088046825681022EB
:101F20009543256083F310880368DC69E40600D5D7
:101F30001A620988FFF762FA01B0F0BDFFF778FD79
:101F400001B0F0BD00840040F0B587B004460168E0
:101F5000C8690D688B6826465C36B788326B222AC2
:101F600000D0B1E0059320210391B189002900D16F
:101F7000B0E00399084000D1ACE001210598084089
:101F800005900691080205400295049707E0204657
:101F9000FFF74EFD029DB806049F00D49AE020682A
:101FA000416A3940A26D11807188491E7180911C6F
:101FB000A165C769790738D06A426A41FB07069B69
:101FC00000D01346002B04D101220262736B13432D
:101FD0007363059B5A425A41BB07069B00D51346C3
:101FE000002B05D102220262726B04231343736338
:101FF000059B5A425A41002906990CD511460029E1
:102000000BD104210162706B022101437163706B7B
:10201000002805D109E00029F3D0706B002804D016
:102020002046FFF787FA0020706370880028B2D13D
:10203000EFF31081012080F31088020223681D68ED
:1020400095431D6081F31088EFF3108180F31088B1
:1020500022689368DD4D2B40936081F310880399CB
:102060003163002161672167830222681343D84DE1
:10207000AB4218D1E26E012A89D1E166EFF31081FB
:1020800080F310882268136810208343136081F363
:1020900010882168CA69D20600D5086231882046B6
:1020A000FFF7ACF976E752681202E3D5EFF310823E
:1020B000019280F31088830625682A689A432A6073
:1020C000019A82F31088D5E78869082202438A6161
:1020D00007B0F0BD70880028FAD0B1898842F7D2E5
:1020E000EFF31080012181F31088B84A521C236855
:1020F0009D6815409D6080F3108807486067EFF386
:10210000108081F3108821680A68039B1A430A60D3
:1021100080F3108807B0F0BD711E0008F0B581B0E3
:10212000026801465C318B880C6B222C0ED1526AFE
:102130001A40836D1A704A88521E4A80826D521C62
:1021400082654A88002A07D001B0F0BD9069082155
:102150000143916101B0F0BDEFF31083012282F3DE
:1021600010880924640105682E68A6432E6083F355
:102170001088EFF3108382F310880468A5689543F4
:10218000A56083F3108820230B6300234367036754
:102190009502046825438E4EB5420DD06468240232
:1021A0000AD5EFF3108482F3108895060668376825
:1021B000AF43376084F31088C46E012C15D1C36619
:1021C000EFF3108382F3108804682568102295438A
:1021D000256083F310880368DC69E40600D51A6281
:1021E0000988FFF70BF901B0F0BDFFF721FC01B042
:1021F000F0BDC04600840040F0B587B004460168D9
:10220000C8690D688B6826465C36B788326B222A0F
:1022100000D0B3E0059320210391B189002900D1BA
:10222000B2E00399084000D1AEE0012105980840D2
:1022300005900691080205400295049707E02046A4
:10224000FFF7F6FB029DB806049F00D49CE02068CF
:10225000406A3840A16D08707088401E7080A06D83
:10226000401CA0652068C769790738D06A426A4176
:10227000FB07069B00D01346002B04D1012202620B
:10228000736B13437363059B5A425A41BB07069B0A
:1022900000D51346002B05D102220262726B042383
:1022A00013437363059B5A425A41002906990CD582
:1022B000114600290BD104210162706B02210143F8
:1022C0007163706B002805D109E00029F3D0706BB1
:1022D000002804D02046FFF72DF900207063708895
:1022E0000028B0D1EFF31081012080F310880202A2
:1022F00023681D6895431D6081F31088EFF31081FA
:1023000080F3108822689368304D2B40936081F3EE
:102310001088039931630021616721678302226875
:102320001343BB4DAB4218D1E26E012A87D1E1665F
:10233000EFF3108180F31088226813681020834324
:10234000136081F310882168CA69D20600D508623B
:1023500031882046FFF752F874E752681202E3D53D
:10236000EFF31082019280F31088830625682A68B3
:102370009A432A60019A82F31088D5E78869082277
:1023800002438A6107B0F0BD70880028FAD0B18995
:102390008842F7D2EFF31080012181F310880B4AB5
:1023A000521C23689D6815409D6080F31088FA4890
:1023B0006067EFF3108081F3108821680A68039B3F
:1023C0001A430A6080F3108807B0F0BDFEFFFFEFEC
:1023D00000840040F0B583B00446026810688B4961
:1023E0000140A0682369034365691D430D43E76904
:1023F0003D4315600320010353688B43E168194393
:1024000051600126B3021343A56981498B420190B3
:10241000029701D1294601E0216A2943204668300C
:1024200095687C4F2F400F439760D56A0F218D43ED
:10243000616A0D43D5620025774FBA420DDC7B4FB0
:10244000BA421FDC7C4DAA422ED07C4DAA420746E0
:1024500052D17B4A126812092AE0704FBA4219DC45
:10246000714DAA42074628D06948824244D1744837
:1024700000688005820F73487A44127952009744AD
:1024800032276B696A4FBA4227D06A4FBA42074671
:1024900024D031E0624FBA4207461FD0614DAA42B4
:1024A0002AD1674A126803E0654A12689208074613
:1024B0009207120F64A39D5823E06148006800054D
:1024C000820F60487A441279520097440C014543C8
:1024D000FEF736FC00280BD18EE007464C488342BD
:1024E0000FD1002E06D0FEF719FC002800D183E0A2
:1024F000616A31E0012680E01025002644488342CD
:10250000EFD00126F2030298904211D1082D00D994
:1025100073E04C487D442D796D00AF44046E406EED
:10252000396E6E6E3F00FEF7F9FB002834D163E090
:10253000082D62D84348C0467D442D796D00AF44D4
:10254000045C4A5C435C5C5C4900FEF7E7FB0028E6
:102550003ED151E00120C00349003F4A515A00F0EA
:102560003DFE6268019951430126884245D311031B
:10257000884242D8010E55080002002340195941F3
:10258000FDF734FE35494118354A914232D334E0E3
:10259000FEF7D6FB00282FD0616A00E01046490004
:1025A0002D4A515A00F01AFE400061684A0810187E
:1025B00000F014FE0246103A2A498A421DD2014018
:1025C0000007400F084315E0FEF7BAFB002813D0C0
:1025D000616A00E0104649001F4A515A00F0FEFDB2
:1025E00061684A08101800F0F9FD014610391D4ACB
:1025F000914202D22168C86000261B483860002042
:102600006067A067304603B0F0BDC046F369FFCFF6
:1026100000840040FFF4FF11FF7F0040FF370140BE
:10262000003C01400038014000800040FF4B00406A
:10263000004C004000500040004400400048004072
:10264000541002400024F4000000000004000000C8
:1026500002000000080000003434000800FDFFFF05
:1026600000FD0F00F0FF00000100010070B55C23C9
:10267000C25281650021416703465C335A808468F9
:10268000002C0BD001252E07B4420CD02D03AC42F8
:102690000ED10469002C04D13C4C0CE00469002CE0
:1026A00008D1FF2407E00469002C03D03F2402E096
:1026B000998001E07F249C80596322211963EFF304
:1026C0001084012181F310880568AE680E43AE6066
:1026D00084F310884C07456EA54202D19B89934232
:1026E0001CD902690B0384689C4204D1002A1FD0C4
:1026F000294A426703E0284B4367002A1AD0EFF3C8
:10270000108281F310880902006803680B432021BE
:102710001943016082F31088002070BD02690B0329
:1027200084689C4213D1002A21D0194A426712E0E2
:102730001A4A4267EFF3108281F31088006801683B
:1027400020230B43036082F31088002070BD104BE0
:102750004367002A0DD0EFF3108281F310880B023B
:10276000046825681D43256082F3108801E0094A4A
:102770004267EFF3108281F31088090700688368CD
:102780000B43836082F31088002070BDFF010000BE
:10279000F9210008491F00081D210008711E0008CA
:1027A000F0B585B01F4615460E460368D96931401D
:1027B000891B4A424A410021AA4222D10A9C002C8C
:1027C00022D00391611C24D1D9693140891B4A422E
:1027D0004A41AA4231D1D9693140891B4A424A4112
:1027E000AA422AD1D9693140891B4A424A41AA42A8
:1027F00023D1D9693140891B4A424A41AA42E3D0D8
:102800001BE0084605B0F0BDFDF768FF032005B0EA
:10281000F0BD402E049001D0802E14D1FDF75EFF54
:10282000C01BA0420CD8049800680168C069304001
:10283000801B41424141A942F0D0039805B0F0BD50
:10284000032005B0F0BD8430019001200090C0024B
:10285000029006E0C8693040801B41424141A942D4
:10286000EBD1FDF73BFFC11B0320A1423FD80499E8
:1028700009680A685207EDD5CA69120739D4CA69CE
:10288000029B1A42E6D0029A0A62EFF310820121FB
:1028900081F3108809235B01049C246825689D430B
:1028A000256082F31088EFF3108281F31088049B77
:1028B0001B689C682A4D25409D60049B82F310880C
:1028C000DA6E012A0BD1EFF3108281F310881968B8
:1028D0000B681024A3430B60049B82F31088202113
:1028E000019CA1600022DA665A672270E16005B09F
:1028F000F0BD08250D62EFF31081009880F3108879
:1029000009225201049B1B681C6894431C6081F3DC
:102910001088EFF3108180F31088049A126893688E
:102920000F4C1C40049B946081F31088D96E0129E0
:102930000CD1EFF31081012282F310881A6813681A
:102940001024A3431360049B81F310882021019A73
:1029500091600021D96659671170D56005B0F0BD4E
:10296000FEFFFFEF80B50248FEF7E6FD80BDC046E2
:1029700028050020F0B5CBB007464B2000013818E1
:1029800008905520C0003D18A8783E46A43600287F
:102990000697079600D179E13846A63001780229DA
:1029A00000D070E129880C18621E1278032A00D02A
:1029B00069E1827843781B029A1893B2091F994201
:1029C00000D060E10A95411C09918179019141791A
:1029D000059101790491C0780390AD37901F86B2BC
:1029E0000BAD2846394632461F46FDF787FC0020CE
:1029F0000296A855A01E0078E11E097809020C185D
:102A00000998394600F0BCFA844200D038E10398B6
:102A10000002049946180599012933D002293ED1B4
:102A200007980078002800D12AE102210591091AAF
:102A30000991069A1C3247420321B5B21346183B4E
:102A40001B88AB4276D07C18022C00D118E11346CB
:102A5000103B1B88AB426FD0099B5B18032B00D146
:102A60000EE11346083B1B88AB4267D0002C00D117
:102A700006E11388AB4262D0091D7B182032032B7C
:102A8000DBD1FDE008980468002C00D1F8E0029842
:102A90000090B2B201200BAB0199A047F0E0C81E34
:102AA000C0B2012800D9EBE008980468002C0D465C
:102AB00006D002980090B2B20BAB28460199A0470D
:102AC000042D00D0DCE0300400D1D9E00798017873
:102AD000002900D1D4E00220401A0990069A1C3245
:102AE0004D420320B4B21746183F3F88A74200D199
:102AF00092E02F18022F00D1C2E01346103B1B8832
:102B0000A34200D18AE0099B1B18032B00D1B7E038
:102B10001346083B1B88A34200D181E0002F00D15F
:102B2000AEE01388A3427CD0001D2B182032032B6B
:102B3000D8D1A5E0C91E02E0891E00E0491E089A0E
:102B40001468002C069A079E09D0C80010188179D5
:102B50000298009002200BAB2A46A047307800284C
:102B600000D18DE005990A1A069B1C3346420321C9
:102B70001C46183C2488AC421AD07418022C7FD012
:102B80001F46103F3F88AF4214D05718032F77D00D
:102B90001F46083F3F88AF420ED0002C70D01C88E3
:102BA000AC420AD0091D74182033032CE0D167E031
:102BB000C91E02E0891E00E0491ECAB2431E9342AC
:102BC000079D27DDC800069A1218D0681369506067
:102BD00093604B1C2878441E9C421BDD506993690E
:102BE000D06013618B1C2878441E9C4212DDD06992
:102BF000136A50619361CB1C2878441E9C4209DD06
:102C0000506A936AD06113622032091D2878431EEE
:102C10008B42DADC401E32E0C01E02E0801E00E083
:102C2000401EC2B24B1E9342079D27DDC100069A8B
:102C30005218D168136951609360431C29784C1E67
:102C40009C421BDD51699369D1601361831C297813
:102C50004C1E9C4212DDD169136A51619361C31C01
:102C600029784C1E9C4209DD516A936AD161136236
:102C70002032001D29784B1E8342DADC481E287062
:102C8000069F079E0A9D00202880A870FDF726FD5C
:102C90003578002D00D187E039461C31059100239D
:102CA000049004E05B1CE9B2DAB28A427CD2D9B269
:102CB000C90079188A68821A3C4CA242F2D30C1DD2
:102CC000089A1768002F0AD0897922881D460023A8
:102CD00000930420B8472B463578002D64D00A9322
:102CE000E8B202210B1A2788099040420321059A75
:102CF0001646183E3688BE421ED04618022E16D002
:102D00001446103C2488BC4218D05C18032C0ED00A
:102D10001446083C2488BC4212D0002E07D01488E8
:102D2000BC420ED0091D44182032032CE0D1069F6E
:102D3000079E04980A9BB6E7C91E02E0891E00E0C0
:102D4000491E079ECBB20998421E9A42069F0498DC
:102D500026DDCA00BA18D4681369546093604B1C0E
:102D600035786C1E9C421BDD54699369D4601361F5
:102D70008B1C35786C1E9C4212DDD469136A546139
:102D80009361CB1C35786C1E9C4209DD546A936AB2
:102D9000D46113622032091D35786B1E8B42DADC58
:102DA0006D1E35700A9B7EE74BB0F0BD89130000A5
:102DB000B0B50446A42000222254012045020B484D
:102DC00025520B4B1C604B231B01E1502280201825
:102DD00002714280201DA021FDF7EFFAA63467485A
:102DE00021462A46FEF7D7FAB0BDC046A60200002B
:102DF00020060020F0B583B01C461346029107461A
:102E00000088401C3880A421795C5B4ABE18AB2244
:102E10009200BD18132912D83A46A43200934B1CD5
:102E20001370C90001967E180299B171B080FDF748
:102E300055FC009BB060019E3888010A01E081B218
:102E4000090A029AAA7101226A712871E9700220A6
:102E500028704848381819462246FDF74FFAA11D38
:102E6000A970080A6870681C89B200F089F82146C8
:102E7000083189B268542146093189B203226A5463
:102E8000000AE11D89B268540A3434800020C3432B
:102E9000A2B23A482946FEF7CDFD03B0F0BDC046C8
:102EA000F0B581B01C460646AB20800002233354A7
:102EB0003518A97103200090687100272F71EF70F9
:102EC0002C48301811462246FDF718FAA11DA970AA
:102ED000080A6870681C89B200F052F8214608316F
:102EE00089B268542146093189B2009A6A54000AAD
:102EF000E11D89B268540A341F483452FB43A2B220
:102F00001E482946FEF796FD01B0F0BD70B5054696
:102F1000AB20800002262E542C18A27166712171FC
:102F2000080AE07013482818049E19463246FDF737
:102F3000E5F9B11DA170080A6070601C89B200F04B
:102F40001FF83146083189B260543146093189B2DF
:102F500003226254000AF11D89B260540A36064801
:102F60002E520020C343B2B204482146FEF762FD50
:102F700070BDC046B3020000AC040000280500206C
:102F8000F0B581B0002909D001230A461A40012971
:102F900007D1FF242346002A1ED126E0FF231C462A
:102FA00023E0009299430025FF242346124FE4B208
:102FB00002786240BE5C114CA25CDBB253404278A6
:102FC0005A40A45C7440BB5C801CAD1CAAB28A420F
:102FD000EDD1009A002A08D0E1B2007848400649B5
:102FE000095C064A145C5C400B46E0B21902081802
:102FF00080B201B0F0BDC046603500086034000802
:1030000094B0FDF779FB00260C960B960A9609966C
:103010000896079601256802FDF7EAFB68071390FA
:103020006806129068041190102010900F960320EB
:103030000E9002240D9440210A91099629020891CC
:1030400029040691059005A8FDF7BEFE002803D0CF
:10305000EFF3108072B6FEE7049603960720019006
:10306000029401A82146FDF75DFD002803D0EFF38F
:10307000108072B6FEE7FEF7A9FDFEF7E1FDFEF750
:10308000DFFD544C10492046FFF792FE0F4F524D82
:1030900005E02046FFF76EFC3220FDF737FA38785E
:1030A000002806D01021042320462A46FFF7A2FE5E
:1030B0003E7078780028ECD01021042320462A4660
:1030C000FFF7EEFEE5E7C046D130000870000020B3
:1030D00070B582B0002B2AD0069E002E27D01C4649
:1030E0000D4601282BD0022850D003281DD10022E4
:1030F00037481146A35C835401220A43D2B2B2423C
:1031000013D2A35C835402220A43D2B2B2420CD23D
:10311000A35C835403220A43D2B2B24205D2A35C19
:103120008354091DCAB2B242E4D302B070BD052077
:1031300000070121C903FDF7C1FA02B070BD0420E8
:1031400000902448244B11462A46FFF7DFFE002258
:103150001F481146A35C835401220A43D2B2B242F3
:10316000E3D2A35C835402220A43D2B2B242DCD23D
:10317000A35C835403220A43D2B2B242D5D2A35CE9
:103180008354091DCAB2B242E4D3CEE7102DCCD18C
:1031900000220F481146A35C835401220A43D2B295
:1031A000B242C2D2A35C835402220A43D2B2B242D8
:1031B000BBD2A35C835403220A43D2B2B242B4D23C
:1031C000A35C8354091DCAB2B242E4D3ADE7C04642
:1031D000BC050020740000204C34000843088B42DA
:1031E0001AD3002203098B4279D3030A8B425ED3A0
:1031F000030B8B4242D3030C8B4227D30902FF22DD
:1032000012BA030C8B4202D31212090203D0030B31
:103210008B4233D31AE0D3E0411A8041401C7047FF
:1032200003460B4371D443088B42F5D300220309B4
:103230008B4254D3030A8B4239D3030B8B421DD3E9
:10324000030C8B4202D394466EE0090AC30B8B42F7
:1032500001D3CB03C01A5241830B8B4201D38B03A2
:10326000C01A5241430B8B4201D34B03C01A524147
:10327000030B8B4201D30B03C01A5241C30A8B428A
:1032800001D3CB02C01A5241830A8B4201D38B0275
:10329000C01A5241430A8B4201D34B02C01A524119
:1032A000030A8B4201D30B02C01A5241CDD2C3098B
:1032B0008B4201D3CB01C01A524183098B4201D307
:1032C0008B01C01A524143098B4201D34B01C01AF2
:1032D000524103098B4201D30B01C01A5241C3086A
:1032E0008B4201D3CB00C01A524183088B4201D3D9
:1032F0008B00C01A524143088B4201D34B00C01AC5
:103300005241411A524110007047CA0F00D0494241
:10331000031000D34042534000229C4603098B42D5
:103320002DD3030A8B4212D38901FC2212BA030A5D
:103330008B420CD3890192118B4208D389019211DF
:103340008B4204D3890137D0921100E08909C30967
:103350008B4201D3CB01C01A524183098B4201D366
:103360008B01C01A524143098B4201D34B01C01A51
:10337000524103098B4201D30B01C01A5241C308C9
:103380008B4201D3CB00C01A524183088B4201D338
:103390008B00C01A5241D9D243088B4201D34B0053
:1033A000C01A5241411A00D20146524110466346AA
:1033B0005B1000D34042704763465B1000D340422D
:1033C00001B50021004201D0C9430846C046C046AD
:1033D00002BD00000000000000000000000000002E
:1033E00000000000000000000000000000000000DD
:1033F00000000000010000000200000003000000C7
:1034000004000000060000000700000008000000A3
:1034100009000000000000000000000000000000A3
:103420000000000001000000020000000300000096
:1034300004000000010002000400060008000A0069
:103440000C0010002000400080000001AADDCCBB71
:103450000101010307010000080402040801010141
:1034600000C1814001C0804101C0804100C1814054
:1034700001C0804100C1814000C1814001C0804144
:1034800001C0804100C1814000C1814001C0804134
:1034900000C1814001C0804101C0804100C1814024
:1034A00001C0804100C1814000C1814001C0804114
:1034B00000C1814001C0804101C0804100C1814004
:1034C00000C1814001C0804101C0804100C18140F4
:1034D00001C0804100C1814000C1814001C08041E4
:1034E00001C0804100C1814000C1814001C08041D4
:1034F00000C1814001C0804101C0804100C18140C4
:1035000000C1814001C0804101C0804100C18140B3
:1035100001C0804100C1814000C1814001C08041A3
:1035200000C1814001C0804101C0804100C1814093
:1035300001C0804100C1814000C1814001C0804183
:1035400001C0804100C1814000C1814001C0804173
:1035500000C1814001C0804101C0804100C1814063
:1035600000C0C101C30302C2C60607C705C5C40423
:10357000CC0C0DCD0FCFCE0E0ACACB0BC90908C893
:10358000D81819D91BDBDA1A1EDEDF1FDD1D1CDC83
:1035900014D4D515D71716D6D21213D311D1D010F3
:1035A000F03031F133F3F23236F6F737F53534F4E3
:1035B0003CFCFD3DFF3F3EFEFA3A3BFB39F9F83853
:1035C00028E8E929EB2B2AEAEE2E2FEF2DEDEC2C43
:1035D000E42425E527E7E62622E2E323E12120E0B3
:1035E000A06061A163A3A26266A6A767A56564A4A3
:1035F0006CACAD6DAF6F6EAEAA6A6BAB69A9A86813
:1036000078B8B979BB7B7ABABE7E7FBF7DBDBC7C02
:10361000B47475B577B7B67672B2B373B17170B072
:103620005090915193535292965657975595945462
:103630009C5C5D9D5F9F9E5E5A9A9B5B99595898D2
:10364000884849894B8B8A4A4E8E8F4F8D4D4C8CC2
:103650004484854587474686824243834181804032
:10366000803600080000002010000000180100084B
:103670009036000810000020180C000038010008E7
:1036800001000000040000000024F400000000001D
:04000005080000BD32
:00000001FF
